:020000040001F9
:10B00000D02A0020D5B00100EFB00100F1B001005E
:10B010000000000000000000000000000000000030
:10B02000000000000000000000000000F3B001007C
:10B030000000000000000000F5B00100F7B00100C2
:10B040009DB20100F9B00100F9B00100F9B00100B2
:10B05000F9B0010000000000F9B00100F9B00100F2
:10B06000F9B00100F9B00100F9B00100F9B0010038
:10B07000F9B00100F9B00100F9B00100F9B0010028
:10B08000F9B00100F1B20100F9B00100F9B001001E
:10B0900011B30100F9B0010019B30100F9B00100CA
:10B0A000F9B00100F9B0010000000000000000004C
:10B0B0000000000000000000000000000000000090
:10B0C0000348854600F094F80048004719C701007E
:10B0D000D02A00200321094802680A430260084878
:10B0E00002680A4302600748804707480047FEE7B6
:10B0F000FEE7FEE7FEE7FEE7FEE70000240500406E
:10B100005405004039B30100C1B0010030B50B4611
:10B11000014600202022012409E00D46D5409D4231
:10B1200005D31D469540491B2546954040191546B7
:10B13000521E002DF1DC30BD03460B439B0703D0AC
:10B1400009E008C9121F08C0042AFAD203E00B78EC
:10B150000370401C491C521EF9D27047D2B201E064
:10B160000270401C491EFBD270470022F6E710B562
:10B1700013460A4604461946FFF7F0FF204610BD65
:10B18000421C0178401C0029FBD1801A7047F0B5A1
:10B190001FB40646002082B005464024019100906D
:10B1A0001BE0019922460F46304600F043F8049A0E
:10B1B000059B801A994110D310461946224600F08B
:10B1C00029F8361A8F410197224601200021009F5D
:10B1D00000F020F838184D4100902046641E0028E9
:10B1E000DFDC019B00982946324607B0F0BD000025
:10B1F000064C0125064E05E0E36807CC2B430C3CCA
:10B2000098471034B442F7D3FFF75EFFE0D3010054
:10B2100000D4010010B5202A04DB0146203A9140F9
:10B22000002010BD914020239C1A0346E34019439F
:10B23000904010BD10B5202A04DB0846203AD040CB
:10B24000002110BD0B46D340D0402024A21A9140CB
:10B250000843194610BD00008307FF22DB0E9A4009
:10B260008907090E994000280BDA0007000F0838FB
:10B27000830808489B001818C36993430B43C361B4
:10B280007047830804489B001B18186890430843C4
:10B290001860704700ED00E000E400E0F8B5FF2022
:10B2A000013001F024FB002401250E4E0E4F002832
:10B2B00007D00E4804600120B0607D70002000F0CF
:10B2C000BBFDFF20053001F012FB002808D0074825
:10B2D000001D04600220B060BD70012000F0ACFDD4
:10B2E000F8BD0000000300403821002000010040AC
:10B2F00010B506490020086048608860C8600349AE
:10B3000040390860486001F01BFF10BD401101404A
:10B3100010B501F0ABFE10BD10B50648406800281E
:10B3200005D08047002801D000F0DEFB10BD01F001
:10B33000D5F810BD3420002010B501F00FF9002819
:10B3400005D01F491D484860C8131E4988611E4822
:10B35000018CC9B201290BD1828C120708D1028D50
:10B360001206120F042A03D1828D1206120F0AD080
:10B37000012921D1818C09071ED1018D0906090FF0
:10B380000A2904D007E0114A01219160F5E7828D76
:10B390001206120F05D00D290ED1808D0006000F68
:10B3A0000AD10B480168012904D00A4901600168EB
:10B3B0000129FCD1C021416110BD0000DFFF07C0A1
:10B3C00000050040006C0040C00F00F00006004087
:10B3D00000EC0640759300000FB410B504A9074BAC
:10B3E00002AA039800F036F8044602A9002000F0F3
:10B3F0006BFA204610BC08BC04B01847C9B801005D
:10B4000030B47446641E2578641CAB4200D21D46DD
:10B41000635D5B00E31830BC184702E008C8121FE8
:10B4200008C1002AFAD170477047002001E001C12D
:10B43000121F002AFBD17047202804DA0121814025
:10B440000348014201D001207047002070470000EE
:10B45000FC06FFBCFFB591B00F460546002606E08E
:10B4600025280AD0149A139990476D1C761C2878C9
:10B470000028F5D1304615B0F0BD0024009401211C
:10B48000F34A029400E004436D1C2B780846203BED
:10B4900098401042F7D128782A280ED00221287827
:10B4A0000246303A092A15D8009A0A235A43303AFC
:10B4B00080180C436D1C0090F1E701CF009000282C
:10B4C00005DA012040030443009840420090022026
:10B4D00004436D1C28782E2815D104200443687875
:10B4E0006D1C2A280AD101CF6D1C02900BE0029935
:10B4F0000A225143303940186D1C029028780146C9
:10B5000030390929F3D928786C2810D006DC4C286A
:10B510001AD068280ED06A2817D104E0742813D0F6
:10B520007A2812D110E00120400504430CE00121EB
:10B53000090501E0032109050C436978814203D123
:10B540000120000524186D1C6D1C287803906E28BE
:10B550001ED00CDC632831D004DC00288AD05828A7
:10B5600011D1B2E064287BD069280CD178E073282F
:10B570002DD004DC6F2870D0702804D1A7E0752886
:10B580006CD078286BD0149A13999047761C62E09F
:10B590006002400F022807D003280AD00428386828
:10B5A0000AD006603F1D56E03868F117066041601A
:10B5B000F8E738680680F5E70670F3E738786946FB
:10B5C00008740020487404A80390012003E0386840
:10B5D00003900020C0433F1D61070FD5002101E00B
:10B5E0000199491C029A0191914213DA8142F7DBD9
:10B5F000019A0399895C0029F2D10BE0002101E056
:10B600000199491C01918142FADB019A0399895CF5
:10B610000029F5D101990098139A401A009021460B
:10B62000149B00F03BF901998019461807E0039834
:10B6300003990078491C0391149A13999047019833
:10B64000401E0190401CF2D12146149B139A009891
:10B6500000F014F986196D1C09E741E033E034E08D
:10B660000A200021049005916002410F022905D0B3
:10B6700001CFC2179446032905D007E0FF1DFF083C
:10B68000FF0003CF06E000B2C2179446042902D19E
:10B6900040B2C1178C4600226146944506DA0A463C
:10B6A0000021404291418C462D2102E0210504D524
:10B6B0002B216A461176012103E0E10701D0202108
:10B6C000F7E7019154E00A200BE0102009E0102078
:10B6D000049000210420044308200591029003E017
:10B6E00008200021059104906002410F022905D035
:10B6F00001CF00229446032906D006E0FF1DFF0873
:10B70000FF0003CF8C4603E080B2042900D1C0B211
:10B710000021019121072BD50399702906D0049AA5
:10B720001021059B4A401A4305D00EE040216A468D
:10B730001176012108E06146014306D030216A46B6
:10B7400011760399517602210191049A0821059BF3
:10B750004A401A430CD16146014301D1610707D524
:10B7600030216A461176012101910299491E029108
:10B770000399582904D037A103910FA90F910DE027
:10B7800039A1F9E76146059B049AFFF700FD039B89
:10B790008C469B5C0F9A521E0F92137061460143B8
:10B7A000F0D10F9807A9081A20300390600704D53C
:10B7B000012000048443029801E0012002900399D3
:10B7C000884201DD401A00E00020411802900198F3
:10B7D00009180098401A0090E00306D42146149BF3
:10B7E000139A009800F05AF886190020049008E097
:10B7F00006A9085C149A139990470498401C761C7B
:10B80000049001998842F3DBE0030CD52146149B98
:10B81000139A009800F042F8861904E0149A302038
:10B8200013999047761C0299481E02900029F5DC76
:10B8300008E00F980F990078491C0F91149A1399FA
:10B840009047761C0399481E03900029F1DCFBE623
:10B8500009280100303132333435363738396162E6
:10B8600063646566000000003031323334353637AA
:10B87000383941424344454600000000F8B50446CB
:10B8800000251E461746880404D405E039462020CA
:10B89000B0476D1C641EF9D52846F8BDFFB50446B7
:10B8A000002581B01E46C80301D5302700E02027BF
:10B8B000880404D505E038460399B0476D1C641E22
:10B8C000F9D5284605B0F0BD0A68531C0B6010700E
:10B8D0007047F7B584B006460025178815802030DC
:10B8E0000290407B1446002806D03A46214605982F
:10B8F00000F02AFA050009D1B078002823D0059875
:10B9000086462088001DB84202D90C2007B0F0BD41
:10B91000684679DF0028F9D1218803207246505407
:10B9200020881921401C80B2208011542088714643
:10B93000401C80B2208041186846008801F040FC1D
:10B94000218840182080F078002817D02188032310
:10B950000A46F356C91C0598B942D6D8022181542B
:10B9600021880122491C89B2218042542188491C26
:10B9700089B2218043542088401C208070680028B0
:10B9800017D021880023C3560A46C91C0598B9421E
:10B99000BBD80221815421880A22491C89B2218006
:10B9A00042542188491C89B2218043542088401C7C
:10B9B0002080308900280AD0009430460197062262
:10B9C00002210830059B01F017FC05009ED1308A4A
:10B9D00000280AD000943046019707220321103036
:10B9E000059B01F009FC050090D1308B00280AD09E
:10B9F000009430460197152214211830059B01F060
:10BA0000FBFB050082D1306A002806D03B46224667
:10BA1000059900F079FA0500D8D1706A002806D09F
:10BA20003B462246059900F0DFFE0500CED1029884
:10BA3000007B002807D03B4622463046059901F09E
:10BA40004FFA0500C2D13078002807D03B46224685
:10BA50003046059900F0FCFE0500B7D1284655E7B1
:10BA600010B596B000F014F910A9087401F0E9FAC5
:10BA700015901348694608870120888714A81090FC
:10BA80000F4810A9801F888004240C8115A81390EA
:10BA900038216846FFF769FB0220694608700022DA
:10BAA0008A70CC7008A908730EA80A9011466846DF
:10BAB00000F016F9002801D000F016F816B010BDFD
:10BAC0000F18000010B5FFF7CBFF10BDBFF34F8F6D
:10BAD00004490348C860BFF34F8F00BFFDE7000073
:10BAE0000400FA0500ED00E00EB50021029000917F
:10BAF0006A4601910148FFF7E9FF0EBD01400000D1
:10BB0000094B5B68002B07D0002A07D0002805D01E
:10BB10000068037C002B03D0082070470720704783
:10BB20004174426100207047FC1F0020FFB50746AA
:10BB30009007002581B01E461446002825D1002C10
:10BB400023D001F045F93046114EF06030461030F8
:10BB500005704570029981704460756035700124EC
:10BB60000C4875702405046003211420FFF774FB52
:10BB700009480460094CA76003211120FFF76CFB02
:10BB80006068B060002005B0F0BD0720FBE7000052
:10BB9000EC1F002080E200E000E100E00015014021
:10BBA000FEB51F4B5B68002B30D000282ED0052936
:10BBB00001D20720FEBD4369002B27D0437C012B17
:10BBC00026D00027029104460025694616460D70CE
:10BBD000684600F029F801A801F0F8FA002819D009
:10BBE000012101700F494460496881600299076131
:10BBF0004661C16068460A49007948706846007825
:10BC000000F030F801F074FA2846FEBD0820FEBDB1
:10BC10000F46D7E768460425007800F023F8F3E7DD
:10BC2000FC1F00200015014030B5EFF3108172B603
:10BC3000094A54680123002C04D00370002900D164
:10BC400062B630BD5360054B1D68054C254015603C
:10BC50001C6000220270F1E71020002080E100E06B
:10BC6000FC06FFBC08494A68002A0CD000280AD10B
:10BC7000EFF3108072B60A68044B1A6000224A6023
:10BC8000002800D162B670471020002000E100E0DB
:10BC9000F8B50F48182141600E4C0025256001269B
:10BCA000066025600C4F3E6021680029FCD080684A
:10BCB000FF21E12212015043FFF728FA80B22560EC
:10BCC0007E60642148430549FFF720FAC0B2F8BD01
:10BCD000007500400071004000700040E40C00005E
:10BCE000F0B50C4693B01F216A4611800726002745
:10BCF0009180002809D0C17849070DD502A9FFF726
:10BD0000E8FD002809D102AD01E000251780002CD4
:10BD10000ED0E078002802D0304613B0F0BD01AA62
:10BD20000AA92046FFF7D5FD0028F6D10AAA02E0AD
:10BD300068460022878068468088C3B268460088CB
:10BD4000C1B2284672DFE8E77CB5054608880C4694
:10BD50000930904201D90C207CBD684671DF002873
:10BD6000FAD121880820685420881B21401C80B209
:10BD700020802954208800A9401C80B220804019CE
:10BD800006220131FFF7D8F920886946801D80B26C
:10BD900020800978002900D0012129542088401CE6
:10BDA000208000207CBD704700B5174887B04068F0
:10BDB000059000234822154905A801F005F900283F
:10BDC00001D0FFF791FE6A460121002001F0E4F85E
:10BDD000002801D0FFF788FE684601F0D3F800285C
:10BDE00001D0FFF781FE0A4801F0C2F8002801D017
:10BDF000FFF77AFE074801F019F9002801D0FFF794
:10BE000073FE07B000BD0000C4D30100F020002085
:10BE1000A7BD010041D00100002807D0044981429C
:10BE200004D80449814201D901207047002070479D
:10BE3000482000205820002070B5084C050009D08B
:10BE400010342168002907D0086820604968284616
:10BE50008847F6E70834F4E770BD00003821002079
:10BE6000F8B52348416800293ED00E6821494C6846
:10BE700087688078E11B0D022D0AED1C002814D183
:10BE800001201D4A000450601B4A403A50601B4983
:10BE9000400008601A4908601A49012008602F20F4
:10BEA00000F02EFD124901208870B54200D23546BF
:10BEB000E81900020F4B000A403318600D4A516820
:10BEC000001B091B0902090A0002000AC91C814261
:10BED00009D9506818602F2000F012FD0120074991
:10BEE000400480390860F8BD00F072FFF8BD000022
:10BEF000EC1F0020001501404013014080E200E0EB
:10BF000000E100E000100140F8B506461088144634
:10BF10008446801D0D46984201D90C20F8BD328818
:10BF20000720062AFAD31927FF01184BBA4201D974
:10BF30009A42F3D171880629F0D3B94201D99942C6
:10BF4000ECD19A4203D0994201D08A42E6D8052129
:10BF50006046295420881221401C80B22080295438
:10BF60002088401C80B220804119308801F028F9D7
:10BF70002188401880B220804119708801F020F992
:10BF80002188401820800020F8BD0000FFFF00003D
:10BF9000F0B585B00C46002802D0012005B0F0BDF8
:10BFA000207900270126002806D01F4D012820D027
:10BFB00002282CD00F20F1E702970397E068019048
:10BFC000694601A800F04AFE00280ED00298818838
:10BFD000E18000882081029800F0BAFE6946098855
:10BFE0000A01124951188E7300E00A2002212171C2
:10BFF000D4E70F4B6A460021A01D00F0EDFD00289C
:10C0000007D00B4908398F60CF600A28C6D128466F
:10C01000C4E7019800F09CFE054989880A0103499C
:10C0200051188E73F1E700001D1D0000382200201A
:10C030002020002010B50E4900230A784C78A24237
:10C0400012D0521CD2B20A70022A00D10B700A78A8
:10C05000074B920018339A58026088681018000243
:10C06000000A8860012010BD0360002010BD0000A0
:10C07000EC1F002010B5047800222300FFF7C0F960
:10C08000070605070D1D262C06000A7010BD0122AB
:10C090000A7002898A81828814E002220A70028969
:10C0A0008A818288CA81C2688A60007C062802D0A0
:10C0B0000020087410BD0120FBE703220A70C2882B
:10C0C0008A810289CA81C068886010BD04230B7010
:10C0D000C0888881CA8110BD0520087010BD00008D
:10C0E00070B5064D06460024A0002958002901D04D
:10C0F00030468847641C082CF6D370BD58210020B8
:10C1000002490A7882430A70704700001820002014
:10C1100002490A7802430A70704700001820002084
:10C12000F8B506461C481F46007815460C46C00761
:10C130000AD03046FFF770FE002807D0002C07D049
:10C14000A00507D00620F8BD0120F8BD0220F8BDEB
:10C150000320F8BD3068A04204D8A8027168001915
:10C16000884201D90520F8BD002D10D0684600F0A6
:10C1700077FC00280DD000980221C0C00170A101F9
:10C18000090C8180058100F019FD0020F8BD042014
:10C19000F8BD0720F8BD00003020002010B508468B
:10C1A00000F07AFC10BD0000F8B507461E481E4698
:10C1B000007815460C46C0070ED03846FFF72CFE17
:10C1C00000280BD0002D0BD0002C09D0284620438E
:10C1D000800707D00620F8BD0120F8BD0220F8BD79
:10C1E0000320F8BD3868A04204D8B1007868091966
:10C1F000884201D20520F8BD002E11D0684600F01B
:10C200002FFC00280ED0009806990760416001219C
:10C210000172C5600461868200F0D0FC0020F8BD88
:10C220000420F8BD0720F8BD3020002070B500289C
:10C2300001D0012070BD164C0025207B002801D0C4
:10C24000257301E000F09CF820780300FFF7D8F890
:10C25000081E05080B0E1E111A1E00F01BF870BDFB
:10C2600000F07EF870BD00F061F870BD00F038F8A5
:10C2700070BD60880649000120394018406800F010
:10C28000CFFB70BD656000F0D9FB70BD0F2070BDA5
:10C290005822002070B5104900208A1C0D46034624
:10C2A000203D0C18A67A002E08D0A3720401641950
:10C2B000A689002E02D1A47B012C08D0401C80B29C
:10C2C0000228EED30B704B8004484B6070BD108089
:10C2D00000F046F870BD0000582200201D1D00002F
:10C2E00010B50F4C6088010120462038081881895C
:10C2F00000290BD0052020700A48022181800168A6
:10C30000002301220848FFF70BFF10BD41680023FE
:10C3100001220548FFF704FF0421217010BD000031
:10C3200058220020282000204820002038B50A4943
:10C3300008480B6889884268890059185388032483
:10C3400004700020DB1C00909BB20448FFF72CFF18
:10C3500038BD00005822002028200020482000205E
:10C3600010B506494888091D00F0C8FC002802D015
:10C37000FFF7DCFF10BDFFF7B3FF10BD5822002010
:10C38000F0B51D481D4907780246012502268C8814
:10C39000203A3B00FFF734F8080517171A212C2C18
:10C3A00016170189491C01810021418001730B018D
:10C3B000D35C002B08D000234418491C89B2A37217
:10C3C0000229F4D30570F0BD0123F5E742685288D5
:10C3D000D21CA2188A800670F0BD45880B682D011A
:10C3E000AA1855680D60536014818E80062100E004
:10C3F00007210170F0BD00005822002028200020F5
:10C400008188054A914204D00088002801D001208B
:10C410007047002070470000FFFF0000F8B50F468E
:10C42000002804D00120FFF76BFE0120F8BD397908
:10C4300000290AD00026254D01290BD0244C0229C1
:10C4400020681FD003293BD125E000F0F7FA012135
:10C45000397133E000200101695C02290BD0401CD6
:10C4600080B20228F7D30220FFF752FE0120FFF727
:10C4700047FE1848F8BD04016019406800F0D0FA82
:10C480002E551BE00146002301221348FFF748FE0A
:10C490000221A18011E000F0C3FA0C492368203189
:10C4A00049880A01094951184D6825604B60A388E5
:10C4B0000B810221A18005498E543E710028D9D0FC
:10C4C0000120FFF71DFE0E20F8BD000038220020DD
:10C4D000282000201D1D000048200020F8B51E4C1B
:10C4E0002078002836D0E068002600280CD00025EF
:10C4F000607800282ED1684652DF052806D0002833
:10C5000006D0FFF7F1FA0BE00125F1E7012607E07D
:10C51000009800F045FA2169002901D00098884769
:10C52000002D13D16078002814D1608869460880F6
:10C53000A06861DF052804D0002804D0FFF7D4FAF2
:10C5400004E0012502E0E168A0688847002ECFD012
:10C55000002DE5D0F8BD0000342000201048018CEB
:10C56000C9B2012917D1818C090714D1018D09069F
:10C570000A0F03D1828D1206120F0ED0090F012966
:10C5800003D1828D1206120F07D0032903D1808DAB
:10C590000006000F01D00020704701207047000006
:10C5A000C00F00F0800701D00020704701207047C5
:10C5B000F0B5284C2146103948688B6822788646A9
:10C5C0009C46CF78667836E0182353436168521C46
:10C5D000C918A378D2B2934200D100220B78022B63
:10C5E00002D0032B27D123E003464D68194603E010
:10C5F000A94204D00B46C96900291CD0F8E70029DC
:10C6000019D08B4208D1C069002805D1124F0125ED
:10C61000BD600025AC4601270D68C969D9610029B4
:10C6200009D00B685B190B6005E00174C06900E07C
:10C6300000210028F9D19642C6D106496246103938
:10C640008A604860CF70704501D00120F0BD0020A5
:10C65000F0BD0000FC1F002000100140F8B52C4E7A
:10C66000044670680025009041E0002C02D020466E
:10C67000E46920E0264818231030017842684B43D3
:10C68000491CC9B2D21801708378994200D1057053
:10C690001178506801292CD1017C002929D1916899
:10C6A0004160D16881601169C16051698161F1782F
:10C6B000002900D045604368B268164F991A0902F4
:10C6C000090AB94202D28268891806E0D11A090221
:10C6D0008268090A8A4202D9511A016000E00560A5
:10C6E0004560012185600174C56100F009FD002CE1
:10C6F000BBD107481030017840788142BAD17168C7
:10C700000098814201D00120F8BD0020F8BD000052
:10C71000EC1F0020FFFF7F0086B02A48032500247D
:10C720000560FFF741FB2848026A28A16846FEF72A
:10C7300053FE6946112008736846FEF721FD82B258
:10C74000694603A87CDF002801D0FFF7CDF900235C
:10C75000204A05211846FFF7E9F9002801D0FFF724
:10C76000C3F91D4A01211D48FFF7CAF9002801D06D
:10C77000FFF7BAF9FFF774F9184800221849006862
:10C78000FFF70EFA002801D0FFF7AEF9182168462E
:10C79000FEF7EBFC6846057001940F210472C90195
:10C7A0000182448273DF002801D0FFF79DF9012048
:10C7B0000C494005C86048DF0028FCD0FFF794F919
:10C7C000F9E70000540700504000001025303858A9
:10C7D0000000000078200020C5BA0100C4D3010089
:10C7E0009A9900000005005070B5144682880E46E4
:10C7F00005462088111D4118921C994201D8FE2A35
:10C8000001D90C2070BD521C32542088FF21401CDD
:10C8100080B2208031542088401C80B22080811951
:10C82000288800F0CDFC2188401880B22080AA889A
:10C83000002A09D0A968002908D08019FEF77CFCDD
:10C840002088A98840182080002070BD072070BD76
:10C85000F8B50F46017814460546012902D16878DB
:10C86000002806D02088821C9A422DD8012902D0A7
:10C8700006E00720F8BD69784118891C994223D841
:10C88000181A801E86B2684606802188B81C0818CF
:10C8900069467DDF0028EDD12878022805D1694658
:10C8A0000988B14201D809210AE00821012805D1EF
:10C8B0006878B04202D86A46108001E06846068077
:10C8C00068460088FE2801D90C20F8BD2288401C4B
:10C8D000B8542088401C80B2208039542088694692
:10C8E000401C20800988401820800020F8BD0121CC
:10C8F000890740180068002800D001207047000018
:10C9000000280FD00849094A096800BF00BF00BFCE
:10C9100000BF00BF00BF00BF00BF914200D000BFFA
:10C92000401EF2D170470000E81F00200024F400F0
:10C9300010B50C4C2078002801D0852010BD0020B7
:10C94000A06060602061E060032100F02FF800F03B
:10C9500067FB0121002801D103488161217000207B
:10C9600010BD0000382100200005004038B500202F
:10C97000694608706846FFF757F9084C2078002888
:10C9800001D1FFF7D5FFE068401CE0600120A070F6
:10C9900068460078FFF766F938BD000038210020AE
:10C9A00010B5002801D1FFF747FA10BD8207D30E5A
:10C9B000FF229A408907090E10B5994000280BDA2A
:10C9C00003071B0F083B9C080C4BA400E318DC6911
:10C9D00094430C43DC6107E08408094BA400E4188D
:10C9E000236893430B432360C106C90E012088408E
:10C9F000044908600449086010BD000000ED00E033
:10CA000000E400E080E200E000E100E00389CA1CED
:10CA10009A1802814289511AC91E4181704700004B
:10CA200008B50021009101460223024A0248FFF79F
:10CA3000BBFB08BDD8D301004820002008B500206A
:10CA40000090044802230168034A0448FFF7ACFB46
:10CA500008BD000028200020D0D30100482000207D
:10CA600070B50C490446486E042810D00A6E12189E
:10CA7000042A00D3121F401C486618204243551850
:10CA800001462846FEF771FB0120256070BD00209D
:10CA900070BD000068220020F0B52B4C1C22216FD5
:10CAA00085B051430D192978284E00270B00FEF759
:10CAB000A7FC07190509090D0D1119002946FFF7F3
:10CAC000ADFC09E0294600F007FC05E02946FFF728
:10CAD0005FFA01E0FFF7AAFB00282FD0B04202D195
:10CAE000019710E00F2001902878022801D0032838
:10CAF00009D11548AA7D7830016C89180164AA7D96
:10CB0000416C891A416469462846FFF7B3FA6846C2
:10CB1000FFF7E6FA206F1C2148430019FEF725FBBA
:10CB2000606F00280CD0216F491C8907890F21678D
:10CB3000401E606704D00020FFF7AEFF05B0F0BDD7
:10CB40000420FFF7DDFAF9E7782100201D1D000021
:10CB500010B518481822016E51430C18406E002879
:10CB60001FD0207A012802D0022816D10FE0A18A16
:10CB7000E08A091AFF2901DC8AB201E0FF220132B2
:10CB8000E168800023690918181829DF01E0A089ED
:10CB900028DF112806D0002803D00921204600F004
:10CBA0007BF910BD0449FD2208781040042210438F
:10CBB000087010BD682200203020002010B5054804
:10CBC00001784A07920F04D1022211430170FFF746
:10CBD000BFFF10BD30200020F8B507461D481C4699
:10CBE000007815460E46800701D40220F8BD002DBE
:10CBF00001D0002C28D10520F8BD01011648405C69
:10CC000000281ED116E02068002F03D081883A88C2
:10CC100091420FD1002E03D001883288914209D170
:10CC200080682860206868600B482030008928816F
:10CC30000020F8BDA088214600F060F80028E2D16D
:10CC40002060A088401CA080A0880228D5D30A209C
:10CC5000F8BD00001820002038220020F8B5054655
:10CC60004068244F00260C46002828D022490A6834
:10CC7000824224D84968814221D3FFF793FC0028DF
:10CC80001DD028893989884219D103CD083D8A6889
:10CC9000904214D13A460020203A0125AD0203010A
:10CCA0009B185B688B4204D25B198B4201D92080B0
:10CCB00011E0401C80B20228F1D30020F8BD26808C
:10CCC00000960AE0009829688068884205D100989B
:10CCD0006860388928810120F8BD2088694600F005
:10CCE0000DF80028EED12088401C80B22080022858
:10CCF000E6D3E2E75822002048200020F8B50E468F
:10CD00000A68124900014518002A04D050888000A2
:10CD100084180C3401E06C6808340127BF0268688D
:10CD2000C019A0420FD92068401C0CD02046FFF744
:10CD300067FB002802D001203460F8BD60888000C5
:10CD400004190C34EBE70020F8BD00003822002065
:10CD500008B50021009101460123044A0448FFF769
:10CD600023FA002800D00E2008BD0000CCD301001B
:10CD70004820002038B5044613480025436C002B9A
:10CD800008D0026CD500521C52072D18520F5B1EA2
:10CD90004364026400200090A08AAB8880004118A0
:10CDA0000A482A68FFF700FAA18AAA888918A1828E
:10CDB000A17D491E0906090EA17501D10121217429
:10CDC000002800D00E2038BDF0210020482000208F
:10CDD00070B501240B49600408600B49401088605D
:10CDE000094940398860094D6C602F20FFF788FDA4
:10CDF000AC60074D00242F20AC60FFF781FDAC70C4
:10CE000070BD000080E100E04013014000100140CF
:10CE1000EC1F002010B50446FEF70EFB00280CD0D6
:10CE2000A007C00E002C0ADA2107090F083989086B
:10CE3000144A89008918C96906E0134810BDA10881
:10CE4000124A890089180968C1400806800F042821
:10CE500011D200280FD002280DD00D494B68E206F0
:10CE6000D20E01209040002B08D0620992008B580E
:10CE700003438B5004E00448401C10BD0549086082
:10CE8000002010BD00ED00E00120000000E400E003
:10CE90001020002000E100E01FB500220092019266
:10CEA00002920392037A012B02D0022B11D106E0E9
:10CEB0006B461A7002690292828A9A8109E0012304
:10CEC0006A4613708289C389D31A6A46138183899B
:10CED00053814268019200688268684690471FBD8E
:10CEE000FFB50746806A81B0144600283DD0002572
:10CEF00038462030009033E00C20B96A68430E18A1
:10CF0000B088801CFE2802D90C2005B0F0BD228814
:10CF10000299401C885420881622401C80B2208030
:10CF200002990A542088401C80B22080029941183E
:10CF3000308800F045F92188401880B22080B288FE
:10CF4000002A0AD0B16800290FD0029BC018FEF752
:10CF5000F3F82088B188401820806D1C0098EDB24D
:10CF6000007BA842C8D80020CFE70720CDE700000B
:10CF7000002803D00249C860002070470E20704787
:10CF8000342000201CB5034901910091694660DFFF
:10CF90001CBD0000E81F002070B50E460546144673
:10CFA00014211046FEF7E1F80120002120802161C4
:10CFB000217326726572002D00D0A072002070BD12
:10CFC00010B5FEF783FD10BDF8B5002903D08C071E
:10CFD0000025002C01D00720F8BD0E4E0E4FB16089
:10CFE0007280736039680124214003D00A492546C4
:10CFF00080310C60094910DF002803D0002DEBD0F0
:10D000003C60F8BD3470FFF7B1FC1620FFF702FF5B
:10D01000F8BD00003420002000E100E0C1CF010095
:10D02000014800787047000034200020002803D019
:10D0300002490861002070470E207047342000200C
:10D04000704708B5684653DF002801D0FEF74CFD55
:10D050000098C117890F08188110642041437F2070
:10D06000009140060902090A084308BDFEB51F4C9D
:10D070000025A768606802906846FEF7DBFF019014
:10D08000FFF796FA06460198002822D00023009860
:10D09000616817E00E680A46864202D9301A0860B5
:10D0A00012E0801BF31800261660D668D169B446DA
:10D0B000002E07D0FE183602360A56606646966085
:10D0C000D56115460029E5D128466160FFF7C6FA0B
:10D0D00006E02846FFF7C2FA002801D1002E02D050
:10D0E0000298FEF7BDFE0020E070FEBDEC1F0020A0
:10D0F00001200249000508607047000000E200E0DE
:10D1000010B50E4B5968002906D002680C68A2427F
:10D1100004D8A21A0A60C161586010BD0B4604E031
:10D120000B46C969121B002904D00C689442F7D33E
:10D13000A41A0C600260C161D86110BDEC1F002010
:10D14000F8B51D4D6C68002C34D01C480027406891
:10D15000A968401A0602360A2068B04218D8361A62
:10D16000C7192246107CE46900280FD000201074F3
:10D17000EB68002B07D0916950699847002805D0CB
:10D18000FEF7B2FC02E0516990698847002CE3D1B8
:10D1900029786878814206D1401CC0B268700228A4
:10D1A00001D10020687004490006800D18310F502D
:10D1B000FFF79EFFF8BD0000EC1F002000150140A6
:10D1C0000870000A487002207047000010B5094935
:10D1D0004B788C785A1CD2B2944200D100220C7841
:10D1E000944201D1002010BD0270486818214B43C1
:10D1F000C01810BDFC1F0020FFB583B016460C9D63
:10D200000D9C1F46022200950194039800F00CF833
:10D21000002807D13B46102231460095019403981F
:10D2200000F002F807B0F0BDFFB583B0074600205C
:10D230000C9C8646268805463AE07868A900421884
:10D240001188684681805188C1800022694601A802
:10D2500065DF002839D1684601780598814226D1DA
:10D260007046002801D0002200E0022220888918A0
:10D2700042180D998A4227D8714600290AD1401CCC
:10D2800080B22080069A049911542088401C208086
:10D2900001208646218806980A18694601A865DF9C
:10D2A000002812D1694620880978401820806D1C1A
:10D2B0003888A842C1DC704600280AD02088801B2C
:10D2C000401E80B2FF2802D90C2007B0F0BD06999D
:10D2D00088550020F9E70000F8B50C46498A364A1F
:10D2E00009018E18002805D0E1883046FFF78EFB33
:10D2F0000120F8BD3189706889004518217C2E48CD
:10D300000027EC380B00FEF77BF8070F311B2B05CD
:10D31000445254004760A169016027486946EC38CF
:10D32000FFF79CFC002809D029460123221D234831
:10D330000097FEF739FF0221217424E00A20F8BD8E
:10D340002246294601230C3208311C480097FEF77B
:10D350002BFFA17D002901D0032213E0012211E05F
:10D3600029462046FFF706FD074618E0224601231E
:10D370000832291D11480097FEF716FF217803296E
:10D3800005D00622227400280FD00E2709E00522BE
:10D39000F8E74068FFF7DCFC074606202074002F02
:10D3A00003D0E1883046FFF731FB3846F8BD044F23
:10D3B000F7E70F27F5E7000038220020482000207B
:10D3C0001D1D000058200020010000070000FFFF85
:10D3D000DEC0ADDEFF011EF1DEC0ADDEFE011EF1DE
:10D3E00000D40100E81F0020700000001AB4010002
:10D3F00070D4010058200020780A00002AB40100EF
:10D400000024F40000000000000000000000000004
:10D41000000000000000000000000000000000000C
:10D4200000000000000000000000000000000000FC
:10D4300000000000000000000000000000000000EC
:10D4400000000000000000000000000000000000DC
:10D4500000000000000000000000000000000000CC
:10D4600000000000000000009DC1010003FF00005B
:040000050001B0C185
:00000001FF
