:020000040001F9
:10400000F0340020D1410100E3410100E54101000D
:1040100000000000000000000000000000000000A0
:10402000000000000000000000000000E741010067
:104030000000000000000000E9410100EB41010028
:10404000ED410100ED410100ED410100ED410100B4
:10405000ED41010000000000ED410100ED410100D3
:10406000ED410100ED410100ED410100ED41010094
:10407000ED410100ED410100ED410100ED41010084
:10408000ED41010039580100ED410100ED41010011
:104090005B580100ED410100195C0100ED41010098
:1040A000ED410100ED4101000000000000000000B2
:1040B0000000000000000000000000000000000000
:1040C00000F002F800F048F80CA030C808382418B6
:1040D0002D18A246671EAB4654465D46AC4201D140
:1040E00000F03AF87E460F3E0FCCB646012633422A
:1040F00000D0FB1AA246AB463343184748220000C3
:1041000068220000103A02D378C878C1FAD8520762
:1041100001D330C830C101D504680C60704700007D
:104120000023002400250026103A01D378C1FBD8D3
:10413000520700D330C100D50B60704710B5782905
:1041400002D101F003FE10BD002010BD1FB5C04616
:10415000C0461FBD10B510BD02F09FF81146FFF715
:10416000F5FF00F06EFA02F0B7F803B4FFF7F2FFC4
:1041700003BC02F0BBF80000401E00BF00BF00BF40
:1041800000BF00BF00BF00BF00BF00BF00BF00BF37
:1041900000BFF1D17047000070B505460C461646C9
:1041A00002E00FCC0FC5103E102EFAD2082E02D31B
:1041B00003CC03C5083E042E07D301CC01C5361F2E
:1041C00003E021782970641C6D1C761EF9D270BD45
:1041D0000A4802680F210A430260094880470948DB
:1041E0000047FEE7FEE7FEE7FEE7FEE7FEE700002A
:1041F00005480649064A074B704700002405004061
:10420000AF420100C1400100F0240020F034002042
:10421000F02C0020F02C00202E482F490860704719
:104220002E48008CC0B2012810D12C48808C000789
:10423000000F0BD12948806AF0210840402805D1A1
:104240002648C06A084201D1012070470020FCE7DF
:104250002248008CC0B2012827D12048808C00075A
:10426000000F22D11D48806AF021084205D11B4869
:10427000C06A084201D1012070471848806AF021C5
:104280000840102805D11548C06A084201D1012014
:10429000F2E71248806AF0210840302805D10F4823
:1042A000C06A084201D10120E6E70020E4E710B52A
:1042B000FFF7CEFF002805D009480A494860C81317
:1042C00009498861FFF7ACFF002802D001200749A7
:1042D000886010BD0024F40000200020C00F00F012
:1042E000DFFF07C000050040006C004000060040F2
:1042F00070B504460D4616460F2000F0B9F9324657
:104300002946204601F0C4FC70BD70B504460D4638
:104310002A462146D948FFF7EBFF70BD00BF00BF1A
:10432000032005210907072212028918086200BF2D
:1043300000BF00BF00BF052109078918486200BF00
:1043400000BF00BF00BF052109078918C86300BF6F
:1043500000BF70477FB5CA48026ACAA1684601F02B
:10436000B9FC00BF6846007B01090901491C0391A3
:104370006846007BF02188431030039000BF6846F8
:1043800001F0ACFD85B22A46694603A86CDF0446FD
:1043900000BF2546002D06D000BFBCA286212846BE
:1043A000FFF7A6FF00BF00BF7FBD70B50120BA496F
:1043B00048601820B94948600020B94908600120C8
:1043C000B64908600020B64908600120B549086078
:1043D00000BFB34800680028FBD04B242401FF2510
:1043E000AE4989684A00891861430846294601F0A8
:1043F0002FFE86B20020AA4908600120A949486022
:10440000642171430846A84901F02CFEC0B270BD7A
:1044100010B50120A54B186000BFA5480068002812
:10442000FBD00020A24B186000BFA24B9B68012468
:104430006402234204D09F4B9B689F4C234301E0BE
:104440009C4B9B681846C3179B0F1B18991064243C
:1044500061430120954B5860C21E10060B021B0AD7
:10446000184310BD30B599B004210991FFF79DFFA5
:104470000290FFF7CDFF01909049684681810121AC
:10448000018202A905918D49891F0183042103A896
:10449000018201A908913C210AA801F0A0FD022097
:1044A0000A90002108A8417301216846018609A9E4
:1044B0000D91022118A8017003A8179000210AA8E5
:1044C00000F0AAFD044600BF2546002D06D000BF1F
:1044D0006EA2E1212846FFF70BFF00BF00BF19B015
:1044E00030BD10B50446FFF7BDFF10BDF8B500BFE5
:1044F0000020734B05220121009001F0B2F905461E
:1045000000BF2E46002E06D000BF60A2F02130462C
:10451000FFF7EEFE00BF00BF00BF6A4A01216A48F4
:1045200001F01EFA044600BF2546002D06D000BF4C
:1045300056A2F3212846FFF7DBFE00BF00BFF8BDFF
:1045400070B5002261496048006801F050FA0446E5
:1045500000BF2546002D06D000BF4CA2FC212846F6
:10456000FFF7C6FE00BF00BF70BD30B585B0142197
:10457000684601F034FD0321684601700020019077
:104580000021684601720F21C90101820021418288
:1045900063DF044600BF2546002D07D000BF3BA2C5
:1045A000FF2112312846FFF7A3FE00BF00BF0820FD
:1045B00000F05EF805B030BD70B50646002400BFBF
:1045C00000BF00BF00BF2546002D07D000BF2FA2AF
:1045D000FF2125312846FFF78BFE00BF00BF70BDCD
:1045E00010B504462046FFF7E7FF10BD38B500BF01
:1045F0000020374B5022374900900D2001F0C5FABA
:10460000044600BF2546002D07D000BF1FA2FF2192
:104610003C312846FFF76CFE00BF00BF00BF38BD2D
:1046200070B53DDF044600BF2546002D07D000BF12
:1046300016A2FF2148312846FFF75AFE00BF00BFEF
:1046400070BD00BF00201B49486000BFFFF766FE39
:10465000FFF7CCFFFFF77EFEFFF748FFFFF702FFF3
:10466000FFF76EFFFFF781FF00BFFFF7D9FFFCE701
:1046700001218140184A916070470000EFBEADDE15
:104680004000001025303858000000002E2E5C6DD0
:1046900061696E2E630000000073004000750040E9
:1046A0000071004000700040E40C000000C00040B9
:1046B00000C1004000C5004000FCFFFF0F180000D3
:1046C00048200020E3440100042000209A990000C3
:1046D000E14501003822002000050050F8B50446ED
:1046E0005B4806686D46771BFF200130874200D982
:1046F00000E038460246294620468830FFF74CFD48
:10470000F8BDF8B504460F4615466220009001201A
:10471000504908800846446045807F223946083069
:1047200001F060FC00214B486830C1776838FFF722
:10473000D5FF49484069401C08D001221207126980
:1047400091B2454A506901F083FC02E00120000764
:104750004069801EC6B23F493046009A00F02FF9EA
:10476000F8BDF8B504466220009000253A4840693B
:10477000401C08D001221207126991B2364A5069D2
:1047800001F066FC02E0012000074069801EC6B20D
:104790006A462146304600F04EF90546052D01D106
:1047A0000020F8BD002D01D02846FAE72088002817
:1047B00000D1F6E70E2001218140284A916000BF18
:1047C00000BF2088002803D0254800780028F8D0B2
:1047D0000E2001218140214AD16000BF1E4840695E
:1047E000401C08D001221207126991B21A4A50697E
:1047F00001F02EFC02E0012000074069801EC6B2D5
:10480000304600F0CFF805462846CAE70120144993
:104810000870704738B5002100916846007800287C
:1048200015D00C48FFF79DFF044600BF002C01D0B7
:10483000052C01D1012000E000200546002D05D106
:1048400000BF08A27C21FFF753FD00BF00BF38BDA9
:1048500000400100882200200010001000050050D8
:10486000082000202E2E5C2E2E5C2E2E5C2E2E5C20
:104870002E2E5C536F757263655C626C655C626C56
:10488000655F6572726F725F6C6F672E6300000008
:1048900070B503460C46002A01D1894D00E0158809
:1048A0002846002111E0051206023543A8B25D5CDE
:1048B000684005062D0F684005034540A8B205066F
:1048C0002D0D6D0068404D1CA9B2A142EBDB70BDFF
:1048D00002217C4A516000BF7B4909680029FBD056
:1048E0007849886000BF784909680029FBD0002119
:1048F000744A516000BF744909680029FBD07047B1
:104900000122704B5A6000BF6F4A1268002AFBD028
:10491000016000BF6C4A1268002AFBD00022694B7C
:104920005A6000BF684A1268002AFBD0704770B511
:1049300004460D4600E03DDF644800780028FAD1C7
:1049400001206049486000BF5F4800680028FBD034
:10495000256000BF5C4800680028FBD00020594952
:10496000486000BF584800680028FBD070BD70B593
:1049700004460D4629462046FFF7D9FF002070BDAA
:10498000F8B505460E461746002407E0A00031584A
:104990002846FFF7CCFF2D1D601C84B2BC42F5DB1E
:1049A0000020F8BD70B5044601200007006980B200
:1049B000604305462846FFF78BFF002070BDF7B522
:1049C00084B0154601200007006980B2049948436D
:1049D00007463C46A90000220598FFF759FF0390BF
:1049E00020680190019880B2029003990298884251
:1049F00002D1002007B0F0BD3846FFF769FF241D43
:104A0000241D002607E0B200059881582046FFF7D4
:104A100077FF241D761CAE42F5DB2946381DFFF7D3
:104A200086FF2B4903980843019038460199FFF708
:104A30007EFF0020DEE7F7B586B00746144601206A
:104A40000007006980B278430490049D28680390B1
:104A50000398000C000401901D490198884204D07D
:104A600000202070052009B0F0BD2D1D2878207091
:104A70002D1D2078800005902946059A0798FFF79C
:104A80008BFB2078810000220798FFF701FF064684
:104A90000F483043029003990298884201D00520C4
:104AA000E1E70020DFE7024601200007006980B24D
:104AB00050430860002070470449087070470000A8
:104AC000FFFF000000E5014000E401400920002054
:104AD0000000DE45FEB505460E4614462078801CD3
:104AE0001F21081A80B200902178891C8819694614
:104AF0006DDF01900198002801D00198FEBD287952
:104B0000002808D0287969460988884203DA28797C
:104B10000090082700E0092768460088401CC1B2C1
:104B20002278501C2070B1542178481C2070775492
:104B3000217868460088081820700020DEE7F8B564
:104B400005460C462078001D1F2801DD0C20F8BD0D
:104B5000684669DF0646002E01D03046F7E703219C
:104B60002278501C2070A95419212278501C2070E2
:104B7000A954207841196846008800F08AFA217803
:104B8000401820700020E2E7F8B505460F461646AB
:104B90001C466868002801D10720F8BD2078801CD9
:104BA000298840181F2801DD0C20F6E72878401CD2
:104BB000C1B22278501C2070B1542178481C20705A
:104BC00077542A8823789819696801F0A9F9207820
:104BD0002978401820700020DFE730B503461078B0
:104BE000C01C1F2801DD0C2030BD02241578681C74
:104BF00010704C550A241578681C10704C551578A7
:104C0000681C10704B550020EEE7FFB587B00646D4
:104C10001D46109C0020069020780590002747E054
:104C2000B900706841180A88684602814988418144
:104C3000002203A902A854DF04900498002802D09F
:104C400004980BB0F0BD6846017B099881422ED1D3
:104C50000698002801D0002000E002200190207872
:104C60006946097B4118019808181F2801DD0C20AE
:104C7000E7E70698002809D12078401C20702278A8
:104C8000511C08982170A8540120069020784219E0
:104C900003A902A854DF04900498002801D00498C6
:104CA000CFE720786946097B4018207000BF7F1C41
:104CB0003088B842B4DC0698002806D021780598E0
:104CC000401C081AC1B2059829540020B9E7FFB565
:104CD00081B0074615460A9E009602223846049B7C
:104CE0000299FFF792FF0446002C02D0204605B03F
:104CF000F0BD0096102229463846049BFFF785FF39
:104D00000446002C01D02046F1E70020EFE70146E1
:104D10000888062808DB08881922D201904205DDA0
:104D20000888E04A904201D007207047488806284A
:104D300008DB48881922D201904205DD4888D94A0B
:104D4000904201D00720F0E70888D64A904208D068
:104D50004888904205D008884A88904201DD0720A3
:104D6000E3E70020E1E7F8B506460D461446207853
:104D7000801D1F2801D90C20F8BD3046FFF7C7FF62
:104D80000746002F01D03846F6E705212278501C4F
:104D90002070A95412212278501C2070A954227826
:104DA0005119308800F075F9217840182070227868
:104DB0005119708800F06DF921784018207000209A
:104DC000DAE7F8B505460E4614462879801CC7B2C6
:104DD0002078801CC0191F2801DD0C20F8BD781C2C
:104DE000C1B22278501C2070B154FF212278501C8F
:104DF0002070B15422789119288800F04AF921785E
:104E000040182070A88800280EDDA868002801D16D
:104E10000720E3E7AA8823789819A96801F080F8A9
:104E200020782979401820700020D7E7FEB5074682
:104E30000E461446786B002801D10720FEBD0020E5
:104E4000019032E0796B0C22019850430D182879BB
:104E5000801CC0B200900098401CC1B22278501C47
:104E60002070B15416212278501C2070B154227841
:104E70009119288800F00DF9217840182070A88831
:104E800000280EDDA868002801D10720D6E7AA88EF
:104E900023789819A96801F043F8207829794018F7
:104EA00020700198401CC0B201903820C15D01986B
:104EB0008142C7DC0020C1E7F8B504460F4616461C
:104EC0000025002030702068002809D0324639467D
:104ED0002046FFF7FFFD0546002D01D02846F8BD0E
:104EE0006079002808D031463846FFF728FE05468D
:104EF000002D01D02846F2E7208900280BDD33463B
:104F00003A46012120460830FFF73EFE0546002DB7
:104F100001D02846E3E7206900280BD00020216952
:104F2000085632463946FFF758FE0546002D01D097
:104F30002846D4E7A08A00280CDD3B460622022141
:104F4000204614300096FFF7C2FE0546002D01D022
:104F50002846C4E7A08B00280CDD3B46072203212E
:104F600020461C300096FFF7B2FE0546002D01D00A
:104F70002846B4E7A08C00280CDD3B4615221421FE
:104F8000204624300096FFF7A2FE0546002D01D0F2
:104F90002846A4E7E06A002809D032463946E06A8C
:104FA000FFF7E1FE0546002D01D0284697E7206B6C
:104FB000002809D032463946206BFFF702FF05462C
:104FC000002D01D028468AE73820005D002809DD41
:104FD000324639462046FFF729FF0546002D01D00D
:104FE00028467CE728467AE701460889002807D04A
:104FF000C868002804D0C86800780422104201D193
:10500000072070470020FCE701460889002801DDE1
:10501000072070470020FCE7F3B593B00D46002150
:10502000129111911398002814D01398FFF7DCFF08
:105030000446002C02D0204615B0F0BD12AA09A9E2
:105040001398FFF739FF0446002C01D02046F3E700
:1050500009AE00E00026002D13D02846FFF7D4FF4C
:105060000446002C01D02046E6E711AA01A92846F3
:10507000FFF722FF0446002C01D02046DCE701AFF9
:1050800000E0002710A803793A46017A304662DF33
:10509000D2E702460A70FF2000021040001248705A
:1050A00002207047FFFF000010B5002819DAFE4A01
:1050B00003071B0F083B9B089B00D2588307DC0E9D
:1050C000FF23A3409A438B071B0E8407E40EA340E3
:1050D0001A43F54B0407240F083CA408A4001A51F6
:1050E00018E0F24A03231B02D21883089B00D2580F
:1050F0008307DC0EFF23A3409A438B071B0E840714
:10510000E40EA3401A43E94B032424021B1984082C
:10511000A4001A5110BD10B50446E548846003216F
:105120001120FFF7C1FF10BD10B501200004E149B7
:105130004860E04940394860112000F0D4FC11205B
:1051400000F0C3FC0120DC4908602F20FFF714F8B1
:1051500010BD10B5112001218140D44A8032116068
:1051600000BF01200004D3498860D24940398860DB
:105170000120D14948602F20FEF7FEFF10BDF0B599
:10518000024628205043CD4B1B68C118CC4800680C
:10519000401C02D1CA48026057E0C9488B680068C9
:1051A00028246043C54C246800198068834217D8BE
:1051B000C348006828235843C04B1B68C018806848
:1051C0008B68C31ABE48006828246043BB4C24681F
:1051D00000198360BA4800684862B948026034E048
:1051E0008B68B74D2C6828680DE028254543B34EE1
:1051F0003668AD19AD685B1B044628254543AF4EA4
:105200003668AD19686A451C07D028254543AB4E62
:105210003668AD19AD689D42E7D3451C0CD02825F2
:105220004543A64E3668AD19AD68EE1A28254543AC
:10523000A24F3F68ED19AE608B6048622825654338
:105240009E4E3668AD196A6200BFF0BD70B5024669
:105250009B4C2168084609E0904200D108E00146D5
:1052600028244443954D2D686419606A441CF3D189
:1052700000BF441C00D170BD814209D1904C24680C
:1052800028256C438D4D2D686419646A8C4D2C6003
:1052900028244443894D2D686419A3682824444375
:1052A000864D2D686419656A28244C43834E366800
:1052B000A419656228244C43804D2D686419606AE6
:1052C000441C0CD0282444437C4D2D686419A468E8
:1052D000E51828244443794E3668A419A56000BF18
:1052E000C9E710B5112000F0F7FB10BD10B5142070
:1052F00000F0F2FB10BD70B504467248006800284B
:1053000013D0704A216AE06912689047054600BFD1
:105310002E46002E07D000BF6BA2FF21553130462C
:10532000FEF7E6FF00BF00BF02E0E169206A8847A0
:1053300070BDF8B562480068401C39D0002700F005
:1053400004FC04466C480168204600F001FC064657
:105350005B48056811E028206843584909684418EB
:10536000A068B04200D90AE0A068361AA068C71940
:10537000656A2046FFF7BFFF00BF681CEBD100BF86
:105380005E4800785E490978884209D15C48007817
:10539000401CC0B25A490870022801D10020087090
:1053A00057480078800057490F50FFF79FFF00BF14
:1053B000F8BD014651480078514A127890421DD0FC
:1053C0004E480078401C4D4A107010460078022864
:1053D00001D100201070494800788000494A1058D7
:1053E0000860454A086812688018434A10601046F1
:1053F00000680002000A1060012070470020086069
:1054000000BFFAE7FEB52E48006801903E480078DC
:1054100000903FE00098C0003C4909684418257896
:1054200034E01820684361680F18681CC5B2A07882
:10543000A84200D100253868022802D0032822D1D2
:105440000EE02821786848431C4909684618307ED8
:10545000002804D07868FFF7F9FE0020307613E0CA
:105460000CE01749096828225143144A1268881829
:1054700000210176124A416A116000BF104800689D
:10548000401CEED100E000BF00BF00BF6078A84222
:10549000C7D100BF0098411EC9B200910028B9D100
:1054A00007480168019833E01CED00E000E100E0EE
:1054B0000015014040130140001001400C20002065
:1054C000182000202C2000202E2E5C2E2E5C2E2E4C
:1054D0005C2E2E5C2E2E5C536F757263655C617062
:1054E000705F636F6D6D6F6E5C6170705F74696D1E
:1054F00065722E63000000001C2000202820002080
:10550000292000202020002011200020142000202D
:10551000814201D00120FEBD0020FCE7F0B503462A
:10552000002426E0FE4E366828277E43FD4F3F6864
:10553000F01986689E4203D98668F61A86601CE0D8
:1055400086689B1B86683419002686600676F44EB2
:105550003568F34F466A3E604669002E08D00E1942
:105560003602360AC66046690661166846621560EC
:1055700000BFEB480068401CD4D100BFF0BDFEB5B1
:105580000746E74800680290E7480078019069E024
:105590000198C000E549096845185CE0781C07D00F
:1055A0003E4628207043DF4909684418676A23E0B3
:1055B0002978182359436A6850182978491C29709A
:1055C0002978AA78914201D10021297046682821C2
:1055D0007143D44A12688C180168012902D1217ED6
:1055E000002900D037E08168E160C168216101696C
:1055F00061614169216200BFCD49E0680968401AD4
:105600000002000ACB49884208D2C949E06809680B
:1056100000F09EFA21694018A06011E0C448E168DA
:10562000006800F095FA009021690098814204D941
:1056300021690098081AA06001E00020A06000BF66
:105640000020E060206101202076801E60623046EC
:10565000FFF795FD00BF781CA0D1287869788842B3
:105660009CD100BF0198411EC9B2019100288FD181
:10567000AB4801680298814201D00120FEBD0020A4
:10568000FCE7FEB50546A6480068401C34D0A44897
:10569000006828214843A34909684018866800F03B
:1056A00054FA0290A24804682146029800F050FA89
:1056B000C01C0190681C01D1FFF736FD0198B04273
:1056C00001D2304600E0019804192402240A204641
:1056D0009949086000BF00F038FA009002990098DC
:1056E00000F036FAC71C2046029900F031FA8742D2
:1056F00001D9FFF7F6FD01E0FFF72BFDFEBDFEB57A
:105700000020C04301908A480468854807686846BD
:10571000FFF74FFE0546FFF775FE0646002D05D044
:1057200001AA21460098FFF7F9FE01260198FFF72C
:1057300026FF002800D00126002E02D03846FFF7B1
:10574000A0FFFEBD4170704770B502460B46507811
:10575000411C9078884200D100211078884201D104
:10576000002070BD196050781826704355682C18B9
:105770002046F6E7FFB581B005460E461746E9001C
:105780006A4A126888186946FFF7DEFF0446002C53
:1057900002D1042005B0F0BD01202060666000F059
:1057A000D4F9A060E760049820610A986061E9007C
:1057B0005E4A126888180099FFF7C4FFFFF796FD4C
:1057C0000020E7E7F8B504460E46E100574A1268A4
:1057D00088186946FFF7B8FF0546002D01D104205F
:1057E000F8BD022028606E60E100504A12688818F7
:1057F0000099FFF7A7FFFFF779FD0020F0E738B524
:105800000446E100494A126888186946FFF79CFF80
:105810000546002D01D1042038BD03202860001F5B
:105820006860E100414A126888180099FFF78AFF12
:10583000FFF75CFD0020EFE710B500203F4908604E
:1058400000213E4841608160C16000203B494039F1
:1058500008604860FFF76DFD10BD10B5FFF74FFF02
:1058600010BDFFB581B00E4617461C462046810785
:10587000890F01D1012100E00021002902D1072078
:1058800005B0F0BD002C01D10720F9E7FFF761FC5E
:105890002B490A9808602B480670224804600025AE
:1058A0000CE00021282068431E4A1268115028206D
:1058B00068431C4A1268801801766D1CB542F0DB03
:1058C0002820704304190320174908701748046002
:1058D000183400250CE0E900144A126888180021E9
:1058E0000170417087704460182179430C196D1C58
:1058F000032DF0DB0020C043094908600020124955
:10590000087012490870142000F0EDF803211420EB
:10591000FFF7CAFB142000F0D8F8019818E0000047
:10592000182000200C20002011200020142000202E
:105930001C200020FFFF7F00401501404011014066
:105940002C200020102000202820002029200020CA
:10595000FFF7E1FB00F0F9F88049086000208FE7CD
:1059600070B503460C467E480068002801D1082027
:1059700070BD002A01D10720FAE7002B01D10720D2
:10598000F6E700211CE028204843754D2D68285873
:10599000002814D1012528204843714E366835501F
:1059A000282048436E4D2D68401944602820484304
:1059B0006B4D2D684019C26119600020D8E7491C61
:1059C000684800788142DEDB0420D1E710B500F0A2
:1059D00092F8012802D0032804D101E0002403E05A
:1059E000012401E0022400BF00BF204610BDFEB527
:1059F00004460D4616465A480068002801D1082082
:105A0000FEBD58480078844201D2052D01D20720FE
:105A1000F6E728206043524909680858012801D058
:105A20000820EDE7282060434D4909684018406888
:105A3000012801D1284600E000200746FFF7C6FFF5
:105A40003B462A46214600960190FFF793FED7E792
:105A500070B5044642480068002801D1082070BD96
:105A600040480078844201D30720F8E728206043AB
:105A70003B4909680858012801D00820EFE7FFF7E3
:105A8000A5FF05462146FFF79DFEE8E710B534481F
:105A90000068002801D1082010BDFFF797FF0446D9
:105AA000FFF7ADFEF8E710B5044600F04EF82060B1
:105AB000002010BD70B505460E46144631462846F6
:105AC00000F046F82060002070BDC206D20E012111
:105AD0009140254A11607047C206D20E01219140C3
:105AE000224A11607047C206D20E012191401F4A1E
:105AF00080321160704710B51D484068C105C90D5E
:105B0000002920D00A46103A104600280DDA184B1A
:105B10001C330407240F083CA408A4001B59840765
:105B2000E40EE3401B069B0F0BE00F4B0324240203
:105B30001B198408A4001B598407E40EE3401B06CC
:105B40009B0FD8B210BD0420FCE70A48406870479C
:105B50000246501A0002000A704700001C20002074
:105B60000C2000201020002000E100E000E200E016
:105B700000ED00E00015014070B506460C461546E4
:105B800029462046FEF7C1FB70BDFFB581B00C462B
:105B900016461F4620468107890F01D1012100E0EA
:105BA0000021002902D1072005B0F0BD002C01D151
:105BB0000720F9E725480460254806802548076046
:105BC00025490A9808602549019810DF0546002DEF
:105BD00001D02846E8E7162023DFE5E738B500BF07
:105BE0001B480088009069461848006850DF04464A
:105BF000052C00D10EE0002C06D000BF18A25F21BA
:105C00002046FEF775FB00BF10480068114909687F
:105C10008847E5E700BF38BD70B50F480068002829
:105C200010D00D4800688047044600BF2546002D6F
:105C300006D000BF0AA271212846FEF759FB00BF1B
:105C400000BF01E0FFF7CAFF70BD00003820002050
:105C50003C2000203020002034200020795B01000F
:105C60002E2E5C2E2E5C2E2E5C2E2E5C2E2E5C5349
:105C70006F757263655C626C655C626C655F7374A2
:105C800061636B5F68616E646C65722E6300000017
:105C900005460C4616467F2231460B4800F0A2F915
:105CA000002109486030C17708490C800848056028
:105CB000084600880648006872B6A2B231462846F7
:105CC000FEF71FFD00BFFEE710240020402000204B
:105CD000442000200FB41CB5074B06AA7B4469463C
:105CE0000090059800F0C1FA0020694600F0D0FA53
:105CF0001CBC08BC04B01847B105000070B50446D0
:105D000085690068C10601D5302600E02026C0075D
:105D100007D070BD62683046A1689047206A401C79
:105D200020626D1EF6D570BD70B504468569007899
:105D3000C00707D170BD6268A16820209047206A23
:105D4000401C20626D1EF6D570BD000070B5044683
:105D50000D4621461068C046C0462188090502D577
:105D60000F4A7A4402E00E4A7A440E32234600215A
:105D7000243305E00607360F965D5E54491C000982
:105D80000028F7D120780023000705D5702D03D017
:105D9000002901D011320223204600F009FA70BD1B
:105DA000A2050000F3B50446002081B02062204621
:105DB000E168884700287DD0252802D06268A16864
:105DC00083E0454F00257F442046E168884720282E
:105DD000064608DB312E06D2B81920380078002894
:105DE00001D00543F0E7A80701D504208543002032
:105DF000E0610746A0612A2E0AD0304600F07DFA05
:105E0000002827D0303EB80000190090866119E0C4
:105E10000298BA00121902C8916102902046E16806
:105E20008847012F064617D1E06900281FDA202095
:105E300085431CE000980A21806948430099801935
:105E4000303888612046E1688847064600F055FAF8
:105E50000028EFD1012F0AD02E2E08D12046E1686C
:105E600088470646202005437F1C022FC3DBA0691C
:105E7000002803DA4042A06101200543E80701D071
:105E800010208543002E24D030464138192803D8ED
:105E90000120C00205432036204625603146029A83
:105EA0001546FEF74BF900280CD0012807D0ED1D50
:105EB000E80800E00DE0C0000830029077E72D1DF3
:105EC000029574E762683046A1689047206A401CDA
:105ED0006CE7206AFEBD00006605000030B5441C7A
:105EE00003E00178401C00290DD08107F9D10B4B4C
:105EF000DD0104C8D11A91432940FAD0001B0A06DB
:105F000003D0C01E30BD001B30BD0A0401D0801E6E
:105F100030BD0902FCD0401E30BD0000010101016E
:105F2000F8B5042A2CD3830712D00B78491C0370D0
:105F3000401C521E83070BD00B78491C0370401C79
:105F4000521E830704D00B78491C0370401C521E5C
:105F50008B079B0F05D0C91ADF002023DE1B08C961
:105F60000AE0FEF719F9F8BD1D4608C9FD401C46B8
:105F7000B4402C4310C0121F042AF5D2F308C91AEA
:105F8000521EF0D40B78491C0370401C521EEAD4F8
:105F90000B78491C0370401C521EE4D40978017030
:105FA000F8BD01E004C0091F0429FBD28B0701D50D
:105FB0000280801CC90700D00270704700290BD0F6
:105FC000C30702D00270401C491E022904D3830774
:105FD00002D50280801C891EE3E70022EEE7002242
:105FE000DFE70000F8B507460B4639461943890735
:105FF00013D1164CE601042A0FD302CB0D1B8D439F
:10600000354202D102C0121FF5E7CBB20370521E17
:10601000401C002B13D0090AF7E7002A14D0197886
:10602000521E5B1C0170401C002908D0002A0BD0B6
:106030001978521E5B1C0170401C0029EDD1002A0A
:1060400002D01146FFF7C9FF3846F8BD0101010132
:10605000002203098B422CD3030A8B4211D3002365
:106060009C464EE003460B433CD4002243088B423F
:1060700031D303098B421CD3030A8B4201D39446CC
:106080003FE0C3098B4201D3CB01C01A52418309BF
:106090008B4201D38B01C01A524143098B4201D379
:1060A0004B01C01A524103098B4201D30B01C01AA4
:1060B0005241C3088B4201D3CB00C01A524183081E
:1060C0008B4201D38B00C01A524143088B4201D34B
:1060D0004B00C01A5241411A00D2014652411046AB
:1060E00070475DE0CA0F00D04942031000D3404220
:1060F000534000229C4603098B422DD3030A8B4256
:1061000012D3FC22890112BA030A8B420CD38901F3
:1061100092118B4208D3890192118B4204D38901D9
:106120003AD0921100E08909C3098B4201D3CB0117
:10613000C01A524183098B4201D38B01C01A5241CC
:1061400043098B4201D34B01C01A524103098B42D0
:1061500001D30B01C01A5241C3088B4201D3CB00BB
:10616000C01A524183088B4201D38B00C01A52419E
:10617000D9D243088B4201D34B00C01A5241411A75
:1061800000D20146634652415B10104601D34042A3
:10619000002B00D54942704763465B1000D3404254
:1061A00001B50020C046C04602BD70477047704729
:1061B000FFB504460D4681B0243000902168880662
:1061C00004D51022E0699143216000E00120A8423B
:1061D00001DD471B00E000270498A1697A19101817
:1061E000081AA0612078C00602D42046FFF786FD79
:1061F000002608E003986268A168805D9047206AE5
:10620000401C761C206204988642F3DB2078C0068E
:106210000AD52046FFF772FD06E06268A1683020CB
:106220009047206A401C206238467F1E0028F4DC1C
:1062300007E000986268A168405D9047206A401CB2
:10624000206228466D1E0028F3DC2046FFF76CFD17
:106250002078000602D5022005B0F0BD0120FBE742
:1062600001694A1C02610878704700B58FB002913D
:106270000021059105490193794403911146049049
:106280006846FFF78FFD0FB000BD0000E5FFFFFF80
:106290000A681070521C0A607047754600F022F8B8
:1062A000AE46050069465346C008C000854618B092
:1062B00020B5FDF79DFF60BC00274908B6460026C3
:1062C000C0C5C0C5C0C5C0C5C0C5C0C5C0C5C0C5A6
:1062D000403D49008D4670470446C046C0462046B2
:1062E000FDF743FF00487047902400200149182023
:1062F000ABBEFEE726000200704730380A2801D204
:106300000120704700207047303132333435363742
:1063100038394142434445464030580030313233E9
:1063200034353637383961626364656640307800E9
:10633000040000080000000000000002000100004E
:1063400010000000646301000020002048000000ED
:1063500004410100AC63010048200020A8140000A3
:10636000204101000024F4000000000000000000B3
:10637000000000000000000000000000000000001D
:10638000000000000000000000000000000000000D
:1063900000000000000000000000000000000000FD
:0C63A000000000000000000000000000F1
:04000005000140C1F5
:00000001FF
