:020000040001F9
:1040000070330020D1410100E3410100E54101008E
:1040100000000000000000000000000000000000A0
:10402000000000000000000000000000E741010067
:104030000000000000000000E9410100EB41010028
:10404000ED410100ED410100ED410100ED410100B4
:10405000ED41010000000000ED410100ED410100D3
:10406000ED410100ED410100ED410100ED41010094
:10407000ED410100ED410100ED410100ED41010084
:10408000ED41010069540100ED410100ED410100E5
:104090008B540100ED4101002D590100ED4101005B
:1040A000ED410100ED4101000000000000000000B2
:1040B0000000000000000000000000000000000000
:1040C00000F002F800F048F80CA030C808382418B6
:1040D0002D18A246671EAB4654465D46AC4201D140
:1040E00000F03AF87E460F3E0FCCB646012633422A
:1040F00000D0FB1AA246AB4633431847281F0000E6
:10410000481F0000103A02D378C878C1FAD8520785
:1041100001D330C830C101D504680C60704700007D
:104120000023002400250026103A01D378C1FBD8D3
:10413000520700D330C100D50B60704710B5782905
:1041400002D101F073FC10BD002010BD1FB5C046A8
:10415000C0461FBD10B510BD01F00FFF1146FFF79F
:10416000F5FF00F071FA01F027FF03B4FFF7F2FF4B
:1041700003BC01F02BFF0000401E00BF00BF00BFCA
:1041800000BF00BF00BF00BF00BF00BF00BF00BF37
:1041900000BFF1D17047000070B505460C461646C9
:1041A00002E00FCC0FC5103E102EFAD2082E02D31B
:1041B00003CC03C5083E042E07D301CC01C5361F2E
:1041C00003E021782970641C6D1C761EF9D270BD45
:1041D0000A4802680F210A430260094880470948DB
:1041E0000047FEE7FEE7FEE7FEE7FEE7FEE700002A
:1041F00005480649064A074B704700002405004061
:10420000AF420100C1400100702300207033002044
:10421000702B0020702B00202E482F49086070471B
:104220002E48008CC0B2012810D12C48808C000789
:10423000000F0BD12948806AF0210840402805D1A1
:104240002648C06A084201D1012070470020FCE7DF
:104250002248008CC0B2012827D12048808C00075A
:10426000000F22D11D48806AF021084205D11B4869
:10427000C06A084201D1012070471848806AF021C5
:104280000840102805D11548C06A084201D1012014
:10429000F2E71248806AF0210840302805D10F4823
:1042A000C06A084201D10120E6E70020E4E710B52A
:1042B000FFF7CEFF002805D009480A494860C81317
:1042C00009498861FFF7ACFF002802D001200749A7
:1042D000886010BD0024F40000200020C00F00F012
:1042E000DFFF07C000050040006C004000060040F2
:1042F00070B504460D461646132000F0C0F9122092
:1043000000F0BDF932462946204601F04DFA70BD55
:1043100070B504460D462A462146DB48FFF7E8FF04
:1043200070BD10B5122000F0A1F9132000F09EF925
:1043300010BD7FB5D548026AD5A1684601F03AFBA9
:1043400000BF6846007B01090901491C03916846CA
:10435000007BF02188431030039000BF684601F0D5
:104360002DFC85B22A46694603A87CDF044600BFBF
:104370002546002D06D000BFC7A288212846FFF79A
:10438000B7FF00BF00BF7FBD70B51820C5494860AA
:104390000020C54908600120C24908600020C249C8
:1043A00008600120C149086000BFBF4800680028BC
:1043B000FBD04B242401FF25BA4989684A0089189B
:1043C00061430846294601F0B3FC86B20020B64995
:1043D00008600120B5494860642171430846B4492A
:1043E00001F0B0FCC0B270BDF8B568464FDF0446BE
:1043F00000BF2646002E06D000BFA7A2AD21304642
:10440000FFF776FF00BF00BF0098C117890F09189A
:1044100089106422514300910125ED43280600993B
:104420000902090A0843F8BD30B599B00421099181
:10443000FFF7AAFF0290FFF7D7FF01909D4968465A
:1044400081810121018202A905919A49891F018375
:10445000042103A8018201A908913C210AA801F0C6
:104460002EFC02200A90002108A841730121684611
:10447000018609A90D91022118A8017003A81790BF
:1044800000210AA800F0E0FB044600BF2546002DED
:1044900006D000BF80A2D9212846FFF729FF00BF20
:1044A00000BF19B030BD10B50446FFF7BDFF10BD09
:1044B000F8B500BF0020804B05220121009000F0DC
:1044C000E8FF054600BF2E46002E06D000BF72A2B0
:1044D000E8213046FFF70CFF00BF00BF00BF774A5E
:1044E0000121774801F054F8044600BF2546002D0D
:1044F00006D000BF68A2EB212846FFF7F9FE00BFF7
:1045000000BFF8BD70B500226E496D48006801F02B
:1045100086F8044600BF2546002D06D000BF5EA2E7
:10452000F4212846FFF7E4FE00BF00BF70BD30B5A0
:1045300085B01421684601F0C2FB03216846017072
:10454000002001900021684601720F21C9010182FB
:104550000021418273DF044600BF2546002D07D0AD
:1045600000BF4DA2FF210A312846FFF7C1FE00BF60
:1045700000BF122000F083F805B030BD70B50646CC
:10458000002400BF00BF00BF00BF2546002D07D09C
:1045900000BF41A2FF211D312846FFF7A9FE00BF41
:1045A00000BF70BD10B504462046FFF7E7FF10BD01
:1045B000704770B500BF002350224349082001F026
:1045C0006EF9054600BF2E46002E07D000BF32A26E
:1045D000FF2143313046FFF78BFE00BF00BF00BF15
:1045E0003A4801F091F9044600BF2546002D07D056
:1045F00000BF29A2FF2147312846FFF779FE00BFFF
:1046000000BF334801F089F9044600BF2546002D5C
:1046100007D000BF20A2FF214B312846FFF768FEDC
:1046200000BF00BF70BD70B53DDF044600BF25462A
:10463000002D07D000BF18A2FF2153312846FFF7F5
:1046400057FE00BF00BF70BDFFF76BFEFFF7B1FF65
:10465000FFF76FFEFFF72CFFFFF7E6FEFFF752FFB5
:10466000FFF765FF00BFFFF7DEFFFCE70121052232
:10467000120707231B02D2188300D1507047012173
:104680008140144A91607047EFBEADDE40000010DB
:1046900025303858000000002E2E5C6D61696E2EAA
:1046A0006300000000750040007100400070004091
:1046B000E40C00000F1800004C200020A74401006B
:1046C000042000209A9900003C220020A54501000A
:1046D000B145010000050050F7B584B004460F460F
:1046E00006980678B01C1F2803DC2079801C1F2840
:1046F00002DD0C2007B0F0BD1F20801B801E85B29C
:104700000295B11C781802A97DDF03900398002858
:1047100001D00398EEE72068022808D16846008996
:10472000A84204DC09200190684605890BE00820B6
:1047300001902079002804D02079A84201DC257955
:1047400001E068460589681CC2B23046711CCEB2D1
:104750003A543046721CD6B2019939540698017801
:10476000A81C0818C1B2069801700020C2E7F8B56D
:1047700005460C462078001D1F2801DD0C20F8BDE1
:10478000684679DF0646002E01D03046F7E7032160
:104790002278501C2070A95419212278501C2070B6
:1047A000A954207841196846008800F08AFA2178D7
:1047B000401820700020E2E7F8B505460F4616467F
:1047C0001C466868002801D10720F8BD2078801CAD
:1047D000298840181F2801DD0C20F6E72878401CA6
:1047E000C1B22278501C2070B1542178481C20702E
:1047F00077542A8823789819696801F001FA20789B
:104800002978401820700020DFE730B50346107883
:10481000C01C1F2801DD0C2030BD02241578681C47
:1048200010704C550A241578681C10704C5515787A
:10483000681C10704B550020EEE7FFB587B00646A8
:104840001D46109C0020069020780590002747E028
:10485000B900706841180A88684602814988418118
:10486000002203A902A864DF04900498002802D063
:1048700004980BB0F0BD6846017B099881422ED1A7
:104880000698002801D0002000E002200190207846
:104890006946097B4118019808181F2801DD0C2082
:1048A000E7E70698002809D12078401C207022787C
:1048B000511C08982170A8540120069020784219B4
:1048C00003A902A864DF04900498002801D004988A
:1048D000CFE720786946097B4018207000BF7F1C15
:1048E0003088B842B4DC0698002806D021780598B4
:1048F000401C081AC1B2059829540020B9E7FFB539
:1049000081B0074615460A9E009602223846049B4F
:104910000299FFF792FF0446002C02D0204605B012
:10492000F0BD0096102229463846049BFFF785FF0C
:104930000446002C01D02046F1E70020EFE70146B5
:104940000888062808DB08881922D201904205DD74
:104950000888E04A904201D007207047488806281E
:1049600008DB48881922D201904205DD4888D94ADF
:10497000904201D00720F0E70888D64A904208D03C
:104980004888904205D008884A88904201DD072077
:10499000E3E70020E1E7F8B506460D461446207827
:1049A000801D1F2801D90C20F8BD3046FFF7C7FF36
:1049B0000746002F01D03846F6E705212278501C23
:1049C0002070A95412212278501C2070A9542278FA
:1049D0005119308800F075F921784018207022783C
:1049E0005119708800F06DF921784018207000206E
:1049F000DAE7F8B505460E4614462879801CC7B29A
:104A00002078801CC0191F2801DD0C20F8BD781CFF
:104A1000C1B22278501C2070B154FF212278501C62
:104A20002070B15422789119288800F04AF9217831
:104A300040182070A88800280EDDA868002801D141
:104A40000720E3E7AA8823789819A96801F0D8F825
:104A500020782979401820700020D7E7FEB5074656
:104A60000E461446786B002801D10720FEBD0020B9
:104A7000019032E0796B0C22019850430D1828798F
:104A8000801CC0B200900098401CC1B22278501C1B
:104A90002070B15416212278501C2070B154227815
:104AA0009119288800F00DF9217840182070A88805
:104AB00000280EDDA868002801D10720D6E7AA88C3
:104AC00023789819A96801F09BF820782979401873
:104AD00020700198401CC0B201903820C15D01983F
:104AE0008142C7DC0020C1E7F8B504460F461646F0
:104AF0000025002030702068002809D03246394651
:104B00002046FFF7E9FD0546002D01D02846F8BDF7
:104B10006079002808D031463846FFF728FE054660
:104B2000002D01D02846F2E7208900280BDD33460E
:104B30003A46012120460830FFF73EFE0546002D8B
:104B400001D02846E3E7206900280BD00020216926
:104B5000085632463946FFF758FE0546002D01D06B
:104B60002846D4E7A08A00280CDD3B460622022115
:104B7000204614300096FFF7C2FE0546002D01D0F6
:104B80002846C4E7A08B00280CDD3B460722032102
:104B900020461C300096FFF7B2FE0546002D01D0DE
:104BA0002846B4E7A08C00280CDD3B4615221421D2
:104BB000204624300096FFF7A2FE0546002D01D0C6
:104BC0002846A4E7E06A002809D032463946E06A60
:104BD000FFF7E1FE0546002D01D0284697E7206B40
:104BE000002809D032463946206BFFF702FF054600
:104BF000002D01D028468AE73820005D002809DD15
:104C0000324639462046FFF729FF0546002D01D0E0
:104C100028467CE728467AE701460889002807D01D
:104C2000C868002804D0C86800780422104201D166
:104C3000072070470020FCE701460889002801DDB5
:104C4000072070470020FCE7F3B593B00D46002124
:104C5000129111911398002814D01398FFF7DCFFDC
:104C60000446002C02D0204615B0F0BD12AA09A9B6
:104C70001398FFF739FF0446002C01D02046F3E7D4
:104C800009AE00E00026002D13D02846FFF7D4FF20
:104C90000446002C01D02046E6E711AA01A92846C7
:104CA000FFF722FF0446002C01D02046DCE701AFCD
:104CB00000E0002710A803793A46017A304672DFF7
:104CC000D2E702460A70FF2000021040001248702E
:104CD00002207047FFFF000010B5002819DAFE4AD5
:104CE00003071B0F083B9B089B00D2588307DC0E71
:104CF000FF23A3409A438B071B0E8407E40EA340B7
:104D00001A43F54B0407240F083CA408A4001A51C9
:104D100018E0F24A03231B02D21883089B00D258E2
:104D20008307DC0EFF23A3409A438B071B0E8407E7
:104D3000E40EA3401A43E94B032424021B19840800
:104D4000A4001A5110BD10B50446E5488460032143
:104D50001120FFF7C1FF10BD10B501200004E1498B
:104D60004860E04940394860112000F0D4FC11202F
:104D700000F0C3FC0120DC4908602F20FFF7FCF99C
:104D800010BD10B5112001218140D44A803211603C
:104D900000BF01200004D3498860D24940398860AF
:104DA0000120D14948602F20FFF7E6F910BDF0B58A
:104DB000024628205043CD4B1B68C118CC480068E0
:104DC000401C02D1CA48026057E0C9488B6800689D
:104DD00028246043C54C246800198068834217D892
:104DE000C348006828235843C04B1B68C01880681C
:104DF0008B68C31ABE48006828246043BB4C2468F3
:104E000000198360BA4800684862B948026034E01B
:104E10008B68B74D2C6828680DE028254543B34EB4
:104E20003668AD19AD685B1B044628254543AF4E77
:104E30003668AD19686A451C07D028254543AB4E36
:104E40003668AD19AD689D42E7D3451C0CD02825C6
:104E50004543A64E3668AD19AD68EE1A2825454380
:104E6000A24F3F68ED19AE608B604862282565430C
:104E70009E4E3668AD196A6200BFF0BD70B502463D
:104E80009B4C2168084609E0904200D108E00146A9
:104E900028244443954D2D686419606A441CF3D15D
:104EA00000BF441C00D170BD814209D1904C2468E0
:104EB00028256C438D4D2D686419646A8C4D2C60D7
:104EC00028244443894D2D686419A3682824444349
:104ED000864D2D686419656A28244C43834E3668D4
:104EE000A419656228244C43804D2D686419606ABA
:104EF000441C0CD0282444437C4D2D686419A468BC
:104F0000E51828244443794E3668A419A56000BFEB
:104F1000C9E710B5112000F0F7FB10BD10B5142043
:104F200000F0F2FB10BD70B504467248006800281E
:104F300013D0704A216AE06912689047054600BFA5
:104F40002E46002E07D000BF6BA2FF215531304600
:104F5000FFF7CEF900BF00BF02E0E169206A884791
:104F600070BDF8B562480068401C39D0002700F0D9
:104F700004FC04466C480168204600F001FC06462B
:104F80005B48056811E028206843584909684418BF
:104F9000A068B04200D90AE0A068361AA068C71914
:104FA000656A2046FFF7BFFF00BF681CEBD100BF5A
:104FB0005E4800785E490978884209D15C480078EB
:104FC000401CC0B25A490870022801D10020087064
:104FD00057480078800057490F50FFF79FFF00BFE8
:104FE000F8BD014651480078514A127890421DD0D0
:104FF0004E480078401C4D4A107010460078022838
:1050000001D100201070494800788000494A1058AA
:105010000860454A086812688018434A10601046C4
:1050200000680002000A106001207047002008603C
:1050300000BFFAE7FEB52E48006801903E480078B0
:1050400000903FE00098C0003C490968441825786A
:1050500034E01820684361680F18681CC5B2A07856
:10506000A84200D100253868022802D0032822D1A6
:105070000EE02821786848431C4909684618307EAC
:10508000002804D07868FFF7F9FE0020307613E09E
:105090000CE01749096828225143144A12688818FD
:1050A00000210176124A416A116000BF1048006871
:1050B000401CEED100E000BF00BF00BF6078A842F6
:1050C000C7D100BF0098411EC9B200910028B9D1D4
:1050D00007480168019833E01CED00E000E100E0C2
:1050E000001501404013014000100140082000203D
:1050F00014200020282000202E2E5C2E2E5C2E2E28
:105100005C2E2E5C2E2E5C536F757263655C617035
:10511000705F636F6D6D6F6E5C6170705F74696DF1
:1051200065722E630000000018200020242000205B
:10513000252000201C2000200D2000201020002011
:10514000814201D00120FEBD0020FCE7F0B50346FE
:10515000002426E0FE4E366828277E43FD4F3F6838
:10516000F01986689E4203D98668F61A86601CE0AC
:1051700086689B1B86683419002686600676F44E86
:105180003568F34F466A3E604669002E08D00E1916
:105190003602360AC66046690661166846621560C0
:1051A00000BFEB480068401CD4D100BFF0BDFEB585
:1051B0000746E74800680290E7480078019069E0F8
:1051C0000198C000E549096845185CE0781C07D0E3
:1051D0003E4628207043DF4909684418676A23E087
:1051E0002978182359436A6850182978491C29706E
:1051F0002978AA78914201D1002129704668282196
:105200007143D44A12688C180168012902D1217EA9
:10521000002900D037E08168E160C168216101693F
:1052200061614169216200BFCD49E0680968401AA7
:105230000002000ACB49884208D2C949E0680968DF
:1052400000F09EFA21694018A06011E0C448E168AE
:10525000006800F095FA009021690098814204D915
:1052600021690098081AA06001E00020A06000BF3A
:105270000020E060206101202076801E60623046C0
:10528000FFF795FD00BF781CA0D128786978884287
:105290009CD100BF0198411EC9B2019100288FD155
:1052A000AB4801680298814201D00120FEBD002078
:1052B000FCE7FEB50546A6480068401C34D0A4486B
:1052C000006828214843A34909684018866800F00F
:1052D00054FA0290A24804682146029800F050FA5D
:1052E000C01C0190681C01D1FFF736FD0198B04247
:1052F00001D2304600E0019804192402240A204615
:105300009949086000BF00F038FA009002990098AF
:1053100000F036FAC71C2046029900F031FA8742A5
:1053200001D9FFF7F6FD01E0FFF72BFDFEBDFEB54D
:105330000020C04301908A48046885480768684691
:10534000FFF74FFE0546FFF775FE0646002D05D018
:1053500001AA21460098FFF7F9FE01260198FFF700
:1053600026FF002800D00126002E02D03846FFF785
:10537000A0FFFEBD4170704770B502460B465078E5
:10538000411C9078884200D100211078884201D1D8
:10539000002070BD196050781826704355682C188D
:1053A0002046F6E7FFB581B005460E461746E900F0
:1053B0006A4A126888186946FFF7DEFF0446002C27
:1053C00002D1042005B0F0BD01202060666000F02D
:1053D000D4F9A060E760049820610A986061E90050
:1053E0005E4A126888180099FFF7C4FFFFF796FD20
:1053F0000020E7E7F8B504460E46E100574A126878
:1054000088186946FFF7B8FF0546002D01D1042032
:10541000F8BD022028606E60E100504A12688818CA
:105420000099FFF7A7FFFFF779FD0020F0E738B5F7
:105430000446E100494A126888186946FFF79CFF54
:105440000546002D01D1042038BD03202860001F2F
:105450006860E100414A126888180099FFF78AFFE6
:10546000FFF75CFD0020EFE710B500203F49086022
:1054700000213E4841608160C16000203B494039C5
:1054800008604860FFF76DFD10BD10B5FFF74FFFD6
:1054900010BDFFB581B00E4617461C462046810759
:1054A000890F01D1012100E00021002902D107204C
:1054B00005B0F0BD002C01D10720F9E7FFF761FC32
:1054C0002B490A9808602B48067022480460002582
:1054D0000CE00021282068431E4A12681150282041
:1054E00068431C4A1268801801766D1CB542F0DBD7
:1054F00028207043041903201749087017480460D6
:10550000183400250CE0E900144A126888180021BC
:105510000170417087704460182179430C196D1C2B
:10552000032DF0DB0020C043094908600020124928
:10553000087012490870142000F0EDF803211420BF
:10554000FFF7CAFB142000F0D8F8019818E000001B
:1055500014200020082000200D2000201020002012
:1055600018200020FFFF7F0040150140401101403E
:10557000282000200C2000202420002025200020AE
:10558000FFF7E1FB00F0F9F88049086000208FE7A1
:1055900070B503460C467E480068002801D10820FB
:1055A00070BD002A01D10720FAE7002B01D10720A6
:1055B000F6E700211CE028204843754D2D68285847
:1055C000002814D1012528204843714E36683550F3
:1055D000282048436E4D2D684019446028204843D8
:1055E0006B4D2D684019C26119600020D8E7491C35
:1055F000684800788142DEDB0420D1E710B500F076
:1056000092F8012802D0032804D101E0002403E02D
:10561000012401E0022400BF00BF204610BDFEB5FA
:1056200004460D4616465A480068002801D1082055
:10563000FEBD58480078844201D2052D01D20720D2
:10564000F6E728206043524909680858012801D02C
:105650000820EDE7282060434D490968401840685C
:10566000012801D1284600E000200746FFF7C6FFC9
:105670003B462A46214600960190FFF793FED7E766
:1056800070B5044642480068002801D1082070BD6A
:1056900040480078844201D30720F8E7282060437F
:1056A0003B4909680858012801D00820EFE7FFF7B7
:1056B000A5FF05462146FFF79DFEE8E710B53448F3
:1056C0000068002801D1082010BDFFF797FF0446AD
:1056D000FFF7ADFEF8E710B5044600F04EF8206085
:1056E000002010BD70B505460E46144631462846CA
:1056F00000F046F82060002070BDC206D20E0121E5
:105700009140254A11607047C206D20E0121914096
:10571000224A11607047C206D20E012191401F4AF1
:1057200080321160704710B51D484068C105C90D31
:10573000002920D00A46103A104600280DDA184BEE
:105740001C330407240F083CA408A4001B59840739
:10575000E40EE3401B069B0F0BE00F4B03242402D7
:105760001B198408A4001B598407E40EE3401B06A0
:105770009B0FD8B210BD0420FCE70A484068704770
:105780000246501A0002000A70470000182000204C
:10579000082000200C20002000E100E000E200E0F2
:1057A00000ED00E00015014004460D4616467F223C
:1057B0003146094800F086FA002107486030C17779
:1057C00006490D80064804600846008804480068C1
:1057D00072B600BFFEE700008C2200202C200020C3
:1057E0003020002070B506460C4615462946204656
:1057F000FEF78EFD70BDF8B559480078002800D13D
:10580000F8BD58480068002801D1012000E00020C0
:10581000054655480068002801D1012000E000201D
:10582000064600BF002D14D168464EDF0446052C05
:1058300001D101250CE0002C06D000BF4BA269214C
:105840002046FEF755FD03E0464900980968884761
:1058500000BF002E1AD15348008800906946524874
:10586000006860DF0446052C01D101260DE0002C04
:1058700006D000BF3DA280212046FEF739FD04E09E
:105880004948006838490968884700BF002D02D0A0
:10589000002E00D000E0C5E700BF00BFB0E7FFB5B5
:1058A00081B00C4616461F46002C02D1072005B0D9
:1058B000F0BD20468107890F01D1012100E00021C0
:1058C000002901D10720F2E73748046035480680F7
:1058D000364807603649019810DF0546002D01D093
:1058E0002846E4E701201E490870162023DFDEE782
:1058F00010B511DF0446002C01D0012000E000208B
:1059000017490870204610BD0146002901D10E201C
:105910007047154801600020FAE70146002901D1CF
:105920000E2070470F4801600020FAE770B51F484D
:105930000068002811D01D4800688047044600BF59
:105940002546002D07D000BF08A2FF21333128468D
:10595000FEF7CEFC00BF00BF01E0FFF74CFF70BDBB
:105960003420002048200020442000202E2E5C2ED1
:105970002E5C2E2E5C2E2E5C2E2E5C536F75726369
:10598000655C73645F636F6D6D6F6E5C736F66747F
:105990006465766963655F68616E646C65722E63C9
:1059A00000000000402000203C2000203820002083
:1059B000E55701000FB41CB5074B06AA7B446946A6
:1059C0000090059800F0C1FA0020694600F0D0FA76
:1059D0001CBC08BC04B01847B105000070B50446F3
:1059E00085690068C10601D5302600E02026C00781
:1059F00007D070BD62683046A1689047206A401C9D
:105A000020626D1EF6D570BD70B5044685690078BC
:105A1000C00707D170BD6268A16820209047206A46
:105A2000401C20626D1EF6D570BD000070B50446A6
:105A30000D4621461068C046C0462188090502D59A
:105A40000F4A7A4402E00E4A7A440E32234600217D
:105A5000243305E00607360F965D5E54491C0009A5
:105A60000028F7D120780023000705D5702D03D03A
:105A7000002901D011320223204600F009FA70BD3E
:105A8000A2050000F3B50446002081B02062204644
:105A9000E168884700287DD0252802D06268A16887
:105AA00083E0454F00257F442046E1688847202851
:105AB000064608DB312E06D2B819203800780028B7
:105AC00001D00543F0E7A80701D504208543002055
:105AD000E0610746A0612A2E0AD0304600F07DFA28
:105AE000002827D0303EB80000190090866119E0E8
:105AF0000298BA00121902C8916102902046E1682A
:105B00008847012F064617D1E06900281FDA2020B8
:105B100085431CE000980A21806948430099801958
:105B2000303888612046E1688847064600F055FA1B
:105B30000028EFD1012F0AD02E2E08D12046E1688F
:105B400088470646202005437F1C022FC3DBA0693F
:105B5000002803DA4042A06101200543E80701D094
:105B600010208543002E24D030464138192803D810
:105B70000120C00205432036204625603146029AA6
:105B80001546FEF7DBFA00280CD0012807D0ED1DE2
:105B9000E80800E00DE0C0000830029077E72D1D16
:105BA000029574E762683046A1689047206A401CFD
:105BB0006CE7206AFEBD00006605000030B5441C9D
:105BC00003E00178401C00290DD08107F9D10B4B6F
:105BD000DD0104C8D11A91432940FAD0001B0A06FE
:105BE00003D0C01E30BD001B30BD0A0401D0801E92
:105BF00030BD0902FCD0401E30BD00000101010192
:105C0000F8B5042A2CD3830712D00B78491C0370F3
:105C1000401C521E83070BD00B78491C0370401C9C
:105C2000521E830704D00B78491C0370401C521E7F
:105C30008B079B0F05D0C91ADF002023DE1B08C984
:105C40000AE0FEF7A9FAF8BD1D4608C9FD401C464A
:105C5000B4402C4310C0121F042AF5D2F308C91A0D
:105C6000521EF0D40B78491C0370401C521EEAD41B
:105C70000B78491C0370401C521EE4D40978017053
:105C8000F8BD01E004C0091F0429FBD28B0701D530
:105C90000280801CC90700D00270704700290BD019
:105CA000C30702D00270401C491E022904D3830797
:105CB00002D50280801C891EE3E70022EEE7002265
:105CC000DFE70000F8B507460B4639461943890758
:105CD00013D1164CE601042A0FD302CB0D1B8D43C2
:105CE000354202D102C0121FF5E7CBB20370521E3B
:105CF000401C002B13D0090AF7E7002A14D01978AA
:105D0000521E5B1C0170401C002908D0002A0BD0D9
:105D10001978521E5B1C0170401C0029EDD1002A2D
:105D200002D01146FFF7C9FF3846F8BD0101010155
:105D3000002203098B422CD3030A8B4211D3002388
:105D40009C464EE003460B433CD4002243088B4262
:105D500031D303098B421CD3030A8B4201D39446EF
:105D60003FE0C3098B4201D3CB01C01A52418309E2
:105D70008B4201D38B01C01A524143098B4201D39C
:105D80004B01C01A524103098B4201D30B01C01AC7
:105D90005241C3088B4201D3CB00C01A5241830841
:105DA0008B4201D38B00C01A524143088B4201D36E
:105DB0004B00C01A5241411A00D2014652411046CE
:105DC00070475DE0CA0F00D04942031000D3404243
:105DD000534000229C4603098B422DD3030A8B4279
:105DE00012D3FC22890112BA030A8B420CD3890117
:105DF00092118B4208D3890192118B4204D38901FD
:105E00003AD0921100E08909C3098B4201D3CB013A
:105E1000C01A524183098B4201D38B01C01A5241EF
:105E200043098B4201D34B01C01A524103098B42F3
:105E300001D30B01C01A5241C3088B4201D3CB00DE
:105E4000C01A524183088B4201D38B00C01A5241C1
:105E5000D9D243088B4201D34B00C01A5241411A98
:105E600000D20146634652415B10104601D34042C6
:105E7000002B00D54942704763465B1000D3404277
:105E800001B50020C046C04602BD7047704770474C
:105E9000FFB504460D4681B0243000902168880685
:105EA00004D51022E0699143216000E00120A8425E
:105EB00001DD471B00E000270498A1697A1910183A
:105EC000081AA0612078C00602D42046FFF786FD9C
:105ED000002608E003986268A168805D9047206A08
:105EE000401C761C206204988642F3DB2078C006B2
:105EF0000AD52046FFF772FD06E06268A1683020EF
:105F00009047206A401C206238467F1E0028F4DC3F
:105F100007E000986268A168405D9047206A401CD5
:105F2000206228466D1E0028F3DC2046FFF76CFD3A
:105F30002078000602D5022005B0F0BD0120FBE765
:105F400001694A1C02610878704700B58FB0029160
:105F5000002105910549019379440391114604906C
:105F60006846FFF78FFD0FB000BD0000E5FFFFFFA3
:105F70000A681070521C0A607047754600F022F8DB
:105F8000AE46050069465346C008C000854618B0B5
:105F900020B5FEF72DF960BC00274908B64600265B
:105FA000C0C5C0C5C0C5C0C5C0C5C0C5C0C5C0C5C9
:105FB000403D49008D4670470446C046C0462046D5
:105FC000FEF7D3F8004870470C2300200149182041
:105FD000ABBEFEE726000200704730380A2801D227
:105FE0000120704700207047303132333435363766
:105FF000383941424344454640305800303132330D
:10600000343536373839616263646566403078000C
:106010000400000800000000000000020001000071
:106020001000000044600100002000204C0000002F
:1060300004410100906001004C2000202413000066
:10604000204101000024F4000000000000000000D6
:106050000000000000000000000000000000000040
:106060000000000000000000000000000000000030
:106070000000000000000000000000000000000020
:106080000000000000000000000000000000000010
:04000005000140C1F5
:00000001FF
